:100000000C942A000C948A020C9447000C9447002C
:100010000C9447000C9447000C9447000C94470044
:100020000C9447000C9447000C9411030C94470067
:100030000C9447000C9447000C9447000C94470024
:100040000C9447000C9447000C9447000C94470014
:100050000C94470011241FBECFE5D8E0DEBFCDBF12
:1000600010E0A0E6B0E0ECECFBE002C005900D92E1
:10007000A837B107D9F710E0A8E7B0E001C01D929A
:10008000A339B107E1F70E9465030C94E4050C94D1
:100090000000672B09F09FC0009711F4D8980895CD
:1000A0008130910511F4D99808958230910511F4A9
:1000B000DA9808958330910511F4DB98089584301F
:1000C000910511F4DC9808958530910511F4DD98BF
:1000D00008958630910511F4DE98089587309105D2
:1000E00011F4DF9808958A30910511F4C0980895AD
:1000F0008B30910511F4C19808958C30910511F45D
:10010000C29808958D30910511F4C39808958E30EA
:10011000910511F4C49808958F30910511F4C59894
:1001200008958031910511F4C698089581319105A3
:1001300011F4C79808958431910511F4A898089591
:100140008531910511F4A99808958631910511F42E
:10015000AA9808958731910511F4AB9808958831D4
:10016000910511F4AC9808958931910511F4AD9879
:1001700008958A31910511F4AE9808958B31910557
:1001800011F4AF9808958E31910511F49098089567
:100190008F31910511F4919808958032910511F4F1
:1001A000929808958132910511F4939808958232BE
:1001B000910511F4949808958332910511F495985E
:1001C00008958432910511F496980895859709F061
:1001D0009FC097980895009711F4D89A0895813098
:1001E000910511F4D99A08958230910511F4DA9AA3
:1001F00008958330910511F4DB9A089584309105B8
:1002000011F4DC9A08958530910511F4DD9A089572
:100210008630910511F4DE9A08958730910511F426
:10022000DF9A08958A30910511F4C09A08958B30B1
:10023000910511F4C19A08958C30910511F4C29A78
:1002400008958D30910511F4C39A08958E3091056B
:1002500011F4C49A08958F30910511F4C59A089548
:100260008031910511F4C69A08958131910511F4F8
:10027000C79A08958431910511F4A89A089585319B
:10028000910511F4A99A08958631910511F4AA9A5D
:1002900008958731910511F4AB9A0895883191053D
:1002A00011F4AC9A08958931910511F4AD9A08952D
:1002B0008A31910511F4AE9A08958B31910511F4AC
:1002C000AF9A08958E31910511F4909A08958F3167
:1002D000910511F4919A08958032910511F4929A42
:1002E00008958132910511F4939A0895823291050F
:1002F00011F4949A08958332910511F4959A089512
:100300008432910511F4969A0895859709F4979A85
:100310000895CF93DF93C82F80FF05C088E190E058
:1003200061E070E004C088E190E060E070E00E946D
:100330004900C1FF05C089E190E061E070E004C0C0
:1003400089E190E060E070E00E944900C2FF05C0D2
:100350008AE190E061E070E004C08AE190E060E052
:1003600070E00E944900C3FF05C08BE190E061E0AE
:1003700070E004C08BE190E060E070E00E94490012
:10038000DF91CF9108950F931F93182F8AE090E08B
:1003900060E070E00E944900812F0E9489018CE09A
:1003A00090E061E070E00E94490000ED17E0C801B4
:1003B0000197F1F78CE090E060E070E00E94490066
:1003C000C8010197F1F71F910F91089580E00E94F5
:1003D000C30181E00E94C30108951F93813019F485
:1003E000162F105804C0823059F4162F1054812F44
:1003F00082958F700E94C301812F8F700E94C3016C
:100400001F9108958FEF84BB87BB80E00E94890114
:1004100080E49CE90197F1F783E00E94C30180E149
:1004200097E20197F1F783E00E94C30180EF95E521
:100430000197F1F783E00E94C30182E00E94C301AB
:1004400082E00E94C30188E00E94C30180E00E9414
:10045000C3018CE00E94C30180E00E94C30186E0DA
:100460000E94C3010895FF920F931F93F82E8AE014
:1004700090E061E070E00E9449008F2D82958F70BE
:100480000E9489018CE090E061E070E00E944900E8
:1004900000ED17E0C8010197F1F78CE090E060E013
:1004A00070E00E944900C8010197F1F78F2D8F700D
:1004B0000E9489018CE090E061E070E00E944900B8
:1004C000C8010197F1F78CE090E060E070E00E94D5
:1004D0004900C8010197F1F71F910F91FF9008950E
:1004E000CF93DF93EC0102C00E94330289918823ED
:1004F000D9F7DF91CF91089581E00E94C3018CE08C
:100500000E94C301089581E00E94C30188E00E9417
:10051000C30108951F920F920FB60F921124949861
:100520000F900FBE0F901F901895D29880E487B956
:1005300086E886B9089597B18F70892B87B9369A66
:100540003699FECF24B135B1C9010895AF92BF925B
:10055000CF92DF92EF92FF920F931F9382E00E945F
:100560009B02A0E0B0E0BC01CD010E94AE0460930C
:100570007F0070938000809381009093820020E040
:1005800030E040EA50E40E943C0520E030E040E8E2
:100590005AE30E943C0520E030E44CE156E40E941E
:1005A0003C05609383007093840080938500909352
:1005B0008600A0906F00B0907000C0907100D09045
:1005C0007200A60195010E94B00320E030E048ECE3
:1005D00052E40E943C057B018C0160917300709194
:1005E00074008091750090917600A60195010E949B
:1005F000B0039B01AC01C801B7010E9415040E9421
:100600007D049B01AC0160937D0030937E00CB01A3
:100610001F910F91FF90EF90DF90CF90BF90AF9020
:1006200008951F920F920FB60F9211242F933F93AC
:100630004F935F936F937F938F939F93AF93BF93EA
:10064000EF93FF9380917C008F5F80937C0080917B
:100650007C00843649F510927C00809178008F5F91
:1006600080937800809178008A30F1F410927800BD
:1006700080917A008F5F80937A0080917A008C332A
:1006800099F410927A00809179008F5F80937900BD
:10069000809179008E3141F4109279000E94A60277
:1006A0009093920080939100FF91EF91BF91AF9151
:1006B0009F918F917F916F915F914F913F912F917A
:1006C0000F900FBE0F901F9018951F938C9A8D98C6
:1006D00078948BE083BF82E089BF8CE78CBF12BE29
:1006E0008BB780648BBF85B7836085BFD29880E469
:1006F00087B986E886B90E94A602909392008093FB
:1007000091001FEF859B949A809B27C014BB17BB59
:100710000E94020281E061E00E94ED0180E690E02B
:100720000E94700282E064E00E94ED0180919100DD
:100730009091920067E870E04AE050E00E949F05C7
:1007400087E890E00E94700282E067E00E94ED017D
:100750008DE690E00E947002D5CF15BA18BAD2CFBC
:100760005058BB27AA270ED04DC13ED130F043D1FF
:1007700020F031F49F3F11F41EF433C10EF4E095E4
:10078000E7FB29C1E92F4FD180F3BA17620773073E
:100790008407950718F071F49EF567C10EF4E09593
:1007A0000B2EBA2FA02D0B01B90190010C01CA012B
:1007B000A0011124FF27591B99F0593F50F4503ED6
:1007C00068F11A16F040A22F232F342F4427585FC8
:1007D000F3CF469537952795A795F0405395C9F7E0
:1007E0007EF41F16BA0B620B730B840BBAF0915098
:1007F000A1F0FF0FBB1F661F771F881FC2F70EC037
:10080000BA0F621F731F841F48F487957795679509
:10081000B795F7959E3F08F0B3CF9395880F08F0F2
:100820009927EE0F9795879508950CD0EBC0E3D0EC
:1008300040F0DAD030F021F45F3F19F0CCC0511114
:1008400015C1CFC0F0D098F39923C9F35523B1F364
:10085000951B550BBB27AA2762177307840738F02F
:100860009F5F5F4F220F331F441FAA1FA9F333D08E
:100870000E2E3AF0E0E830D091505040E695001C42
:10088000CAF729D0FE2F27D0660F771F881FBB1FFE
:10089000261737074807AB07B0E809F0BB0B802DD8
:1008A000BF01FF2793585F4F2AF09E3F510568F024
:1008B00092C0DCC05F3FECF3983EDCF38695779501
:1008C0006795B795F7959F5FC9F7880F911D969526
:1008D000879597F90895E1E0660F771F881FBB1F82
:1008E000621773078407BA0720F0621B730B840B2F
:1008F000BA0BEE1F88F7E095089504D06894B11103
:10090000B5C0089598D088F09F5790F0B92F9927D7
:10091000B751A0F0D1F0660F771F881F991F1AF00A
:10092000BA95C9F712C0B13081F09FD0B1E00895F7
:100930009CC0672F782F8827B85F39F0B93FCCF378
:10094000869577956795B395D9F73EF49095809500
:10095000709561957F4F8F4F9F4F0895E89409C020
:1009600097FB3EF490958095709561957F4F8F4FE2
:100970009F4F9923A9F0F92F96E9BB279395F695F8
:10098000879577956795B795F111F8CFFAF4BB0F76
:1009900011F460FF1BC06F5F7F4F8F4F9F4F16C0DA
:1009A000882311F096E911C0772321F09EE8872F64
:1009B000762F05C0662371F096E8862F70E060E020
:1009C0002AF09A95660F771F881FDAF7880F969599
:1009D000879597F9089597F99F6780E870E060E040
:1009E00008959FEF80EC089500240A9416161706C8
:1009F00018060906089500240A9412161306140610
:100A000005060895092E0394000C11F4882352F072
:100A1000BB0F40F4BF2B11F460FF04C06F5F7F4F2A
:100A20008F4F9F4F089557FD9058440F551F59F011
:100A30005F3F71F04795880F97FB991F61F09F3FCB
:100A400079F087950895121613061406551FF2CFF4
:100A50004695F1DF08C0161617061806991FF1CF44
:100A600086957105610508940895E894BB2766276B
:100A70007727CB0197F908950BD0C4CFB5DF28F0C5
:100A8000BADF18F0952309F0A6CFABCF1124EECF33
:100A9000CADFA0F3959FD1F3950F50E0551F629FD9
:100AA000F001729FBB27F00DB11D639FAA27F00DC7
:100AB000B11DAA1F649F6627B00DA11D661F829FEE
:100AC0002227B00DA11D621F739FB00DA11D621FD3
:100AD000839FA00D611D221F749F3327A00D611DF0
:100AE000231F849F600D211D822F762F6A2F1124D2
:100AF0009F5750408AF0E1F088234AF0EE0FFF1F25
:100B0000BB1F661F771F881F91505040A9F79E3F5B
:100B1000510570F060CFAACF5F3FECF3983EDCF355
:100B2000869577956795B795F795E7959F5FC1F798
:100B3000FE2B880F911D9695879597F90895FB01D7
:100B40009F01E8944230C4F04532B4F44A3029F4AD
:100B500097FB1EF4909581959F4F642F77270E94F5
:100B6000D005805D8A330CF0895D8193CB010097BD
:100B7000A1F716F45DE251931082C9010C94C005EF
:100B8000DC01FC01672F71917723E1F7329704C0F4
:100B90007C916D9370836291AE17BF07C8F308957F
:100BA000AA1BBB1B51E107C0AA1FBB1FA617B70793
:100BB00010F0A61BB70B881F991F5A95A9F78095AF
:0C0BC0009095BC01CD010895F894FFCF82
:100BCC00476173204C6576656C20497300250000E5
:080BDC0000D64200001743009F
:00000001FF
